{
  "_format": "hh3-artifact-1",
  "contractName": "SleepyCatCoinNFT",
  "sourceName": "contracts/SleepyCatCoinNFT.sol",
  "abi": [
    {
      "inputs": [],
      "stateMutability": "nonpayable",
      "type": "constructor"
    },
    {
      "inputs": [
        {
          "internalType": "address",
          "name": "sender",
          "type": "address"
        },
        {
          "internalType": "uint256",
          "name": "tokenId",
          "type": "uint256"
        },
        {
          "internalType": "address",
          "name": "owner",
          "type": "address"
        }
      ],
      "name": "ERC721IncorrectOwner",
      "type": "error"
    },
    {
      "inputs": [
        {
          "internalType": "address",
          "name": "operator",
          "type": "address"
        },
        {
          "internalType": "uint256",
          "name": "tokenId",
          "type": "uint256"
        }
      ],
      "name": "ERC721InsufficientApproval",
      "type": "error"
    },
    {
      "inputs": [
        {
          "internalType": "address",
          "name": "approver",
          "type": "address"
        }
      ],
      "name": "ERC721InvalidApprover",
      "type": "error"
    },
    {
      "inputs": [
        {
          "internalType": "address",
          "name": "operator",
          "type": "address"
        }
      ],
      "name": "ERC721InvalidOperator",
      "type": "error"
    },
    {
      "inputs": [
        {
          "internalType": "address",
          "name": "owner",
          "type": "address"
        }
      ],
      "name": "ERC721InvalidOwner",
      "type": "error"
    },
    {
      "inputs": [
        {
          "internalType": "address",
          "name": "receiver",
          "type": "address"
        }
      ],
      "name": "ERC721InvalidReceiver",
      "type": "error"
    },
    {
      "inputs": [
        {
          "internalType": "address",
          "name": "sender",
          "type": "address"
        }
      ],
      "name": "ERC721InvalidSender",
      "type": "error"
    },
    {
      "inputs": [
        {
          "internalType": "uint256",
          "name": "tokenId",
          "type": "uint256"
        }
      ],
      "name": "ERC721NonexistentToken",
      "type": "error"
    },
    {
      "inputs": [
        {
          "internalType": "address",
          "name": "owner",
          "type": "address"
        }
      ],
      "name": "OwnableInvalidOwner",
      "type": "error"
    },
    {
      "inputs": [
        {
          "internalType": "address",
          "name": "account",
          "type": "address"
        }
      ],
      "name": "OwnableUnauthorizedAccount",
      "type": "error"
    },
    {
      "anonymous": false,
      "inputs": [
        {
          "indexed": true,
          "internalType": "address",
          "name": "owner",
          "type": "address"
        },
        {
          "indexed": true,
          "internalType": "address",
          "name": "approved",
          "type": "address"
        },
        {
          "indexed": true,
          "internalType": "uint256",
          "name": "tokenId",
          "type": "uint256"
        }
      ],
      "name": "Approval",
      "type": "event"
    },
    {
      "anonymous": false,
      "inputs": [
        {
          "indexed": true,
          "internalType": "address",
          "name": "owner",
          "type": "address"
        },
        {
          "indexed": true,
          "internalType": "address",
          "name": "operator",
          "type": "address"
        },
        {
          "indexed": false,
          "internalType": "bool",
          "name": "approved",
          "type": "bool"
        }
      ],
      "name": "ApprovalForAll",
      "type": "event"
    },
    {
      "anonymous": false,
      "inputs": [
        {
          "indexed": false,
          "internalType": "uint256",
          "name": "_fromTokenId",
          "type": "uint256"
        },
        {
          "indexed": false,
          "internalType": "uint256",
          "name": "_toTokenId",
          "type": "uint256"
        }
      ],
      "name": "BatchMetadataUpdate",
      "type": "event"
    },
    {
      "anonymous": false,
      "inputs": [
        {
          "indexed": false,
          "internalType": "uint256",
          "name": "_tokenId",
          "type": "uint256"
        }
      ],
      "name": "MetadataUpdate",
      "type": "event"
    },
    {
      "anonymous": false,
      "inputs": [
        {
          "indexed": true,
          "internalType": "address",
          "name": "previousOwner",
          "type": "address"
        },
        {
          "indexed": true,
          "internalType": "address",
          "name": "newOwner",
          "type": "address"
        }
      ],
      "name": "OwnershipTransferred",
      "type": "event"
    },
    {
      "anonymous": false,
      "inputs": [
        {
          "indexed": true,
          "internalType": "address",
          "name": "from",
          "type": "address"
        },
        {
          "indexed": true,
          "internalType": "address",
          "name": "to",
          "type": "address"
        },
        {
          "indexed": true,
          "internalType": "uint256",
          "name": "tokenId",
          "type": "uint256"
        }
      ],
      "name": "Transfer",
      "type": "event"
    },
    {
      "inputs": [
        {
          "internalType": "address",
          "name": "to",
          "type": "address"
        },
        {
          "internalType": "uint256",
          "name": "tokenId",
          "type": "uint256"
        }
      ],
      "name": "approve",
      "outputs": [],
      "stateMutability": "nonpayable",
      "type": "function"
    },
    {
      "inputs": [
        {
          "internalType": "address",
          "name": "owner",
          "type": "address"
        }
      ],
      "name": "balanceOf",
      "outputs": [
        {
          "internalType": "uint256",
          "name": "",
          "type": "uint256"
        }
      ],
      "stateMutability": "view",
      "type": "function"
    },
    {
      "inputs": [
        {
          "internalType": "uint256",
          "name": "tokenId",
          "type": "uint256"
        }
      ],
      "name": "getApproved",
      "outputs": [
        {
          "internalType": "address",
          "name": "",
          "type": "address"
        }
      ],
      "stateMutability": "view",
      "type": "function"
    },
    {
      "inputs": [
        {
          "internalType": "address",
          "name": "owner",
          "type": "address"
        },
        {
          "internalType": "address",
          "name": "operator",
          "type": "address"
        }
      ],
      "name": "isApprovedForAll",
      "outputs": [
        {
          "internalType": "bool",
          "name": "",
          "type": "bool"
        }
      ],
      "stateMutability": "view",
      "type": "function"
    },
    {
      "inputs": [
        {
          "internalType": "address",
          "name": "to",
          "type": "address"
        },
        {
          "internalType": "string",
          "name": "metadataURI",
          "type": "string"
        }
      ],
      "name": "mintNFT",
      "outputs": [],
      "stateMutability": "nonpayable",
      "type": "function"
    },
    {
      "inputs": [],
      "name": "name",
      "outputs": [
        {
          "internalType": "string",
          "name": "",
          "type": "string"
        }
      ],
      "stateMutability": "view",
      "type": "function"
    },
    {
      "inputs": [],
      "name": "nextTokenId",
      "outputs": [
        {
          "internalType": "uint256",
          "name": "",
          "type": "uint256"
        }
      ],
      "stateMutability": "view",
      "type": "function"
    },
    {
      "inputs": [],
      "name": "owner",
      "outputs": [
        {
          "internalType": "address",
          "name": "",
          "type": "address"
        }
      ],
      "stateMutability": "view",
      "type": "function"
    },
    {
      "inputs": [
        {
          "internalType": "uint256",
          "name": "tokenId",
          "type": "uint256"
        }
      ],
      "name": "ownerOf",
      "outputs": [
        {
          "internalType": "address",
          "name": "",
          "type": "address"
        }
      ],
      "stateMutability": "view",
      "type": "function"
    },
    {
      "inputs": [],
      "name": "renounceOwnership",
      "outputs": [],
      "stateMutability": "nonpayable",
      "type": "function"
    },
    {
      "inputs": [
        {
          "internalType": "address",
          "name": "from",
          "type": "address"
        },
        {
          "internalType": "address",
          "name": "to",
          "type": "address"
        },
        {
          "internalType": "uint256",
          "name": "tokenId",
          "type": "uint256"
        }
      ],
      "name": "safeTransferFrom",
      "outputs": [],
      "stateMutability": "nonpayable",
      "type": "function"
    },
    {
      "inputs": [
        {
          "internalType": "address",
          "name": "from",
          "type": "address"
        },
        {
          "internalType": "address",
          "name": "to",
          "type": "address"
        },
        {
          "internalType": "uint256",
          "name": "tokenId",
          "type": "uint256"
        },
        {
          "internalType": "bytes",
          "name": "data",
          "type": "bytes"
        }
      ],
      "name": "safeTransferFrom",
      "outputs": [],
      "stateMutability": "nonpayable",
      "type": "function"
    },
    {
      "inputs": [
        {
          "internalType": "address",
          "name": "operator",
          "type": "address"
        },
        {
          "internalType": "bool",
          "name": "approved",
          "type": "bool"
        }
      ],
      "name": "setApprovalForAll",
      "outputs": [],
      "stateMutability": "nonpayable",
      "type": "function"
    },
    {
      "inputs": [
        {
          "internalType": "bytes4",
          "name": "interfaceId",
          "type": "bytes4"
        }
      ],
      "name": "supportsInterface",
      "outputs": [
        {
          "internalType": "bool",
          "name": "",
          "type": "bool"
        }
      ],
      "stateMutability": "view",
      "type": "function"
    },
    {
      "inputs": [],
      "name": "symbol",
      "outputs": [
        {
          "internalType": "string",
          "name": "",
          "type": "string"
        }
      ],
      "stateMutability": "view",
      "type": "function"
    },
    {
      "inputs": [
        {
          "internalType": "uint256",
          "name": "tokenId",
          "type": "uint256"
        }
      ],
      "name": "tokenURI",
      "outputs": [
        {
          "internalType": "string",
          "name": "",
          "type": "string"
        }
      ],
      "stateMutability": "view",
      "type": "function"
    },
    {
      "inputs": [
        {
          "internalType": "address",
          "name": "from",
          "type": "address"
        },
        {
          "internalType": "address",
          "name": "to",
          "type": "address"
        },
        {
          "internalType": "uint256",
          "name": "tokenId",
          "type": "uint256"
        }
      ],
      "name": "transferFrom",
      "outputs": [],
      "stateMutability": "nonpayable",
      "type": "function"
    },
    {
      "inputs": [
        {
          "internalType": "address",
          "name": "newOwner",
          "type": "address"
        }
      ],
      "name": "transferOwnership",
      "outputs": [],
      "stateMutability": "nonpayable",
      "type": "function"
    }
  ],
  "bytecode": "0x608060405234801561000f575f5ffd5b50336040518060400160405280600d81526020016c29b632b2b83ca1b0ba21b7b4b760991b8152506040518060400160405280600381526020016253434360e81b815250815f90816100619190610196565b50600161006e8282610196565b5050506001600160a01b03811661009e57604051631e4fbdf760e01b81525f600482015260240160405180910390fd5b6100a7816100ad565b50610250565b600780546001600160a01b038381166001600160a01b0319831681179093556040519116919082907f8be0079c531659141344cd1fd0a4f28419497f9722a3daafe3b4186f6b6457e0905f90a35050565b634e487b7160e01b5f52604160045260245ffd5b600181811c9082168061012657607f821691505b60208210810361014457634e487b7160e01b5f52602260045260245ffd5b50919050565b601f82111561019157805f5260205f20601f840160051c8101602085101561016f5750805b601f840160051c820191505b8181101561018e575f815560010161017b565b50505b505050565b81516001600160401b038111156101af576101af6100fe565b6101c3816101bd8454610112565b8461014a565b6020601f8211600181146101f5575f83156101de5750848201515b5f19600385901b1c1916600184901b17845561018e565b5f84815260208120601f198516915b828110156102245787850151825560209485019460019092019101610204565b508482101561024157868401515f19600387901b60f8161c191681555b50505050600190811b01905550565b6113e88061025d5f395ff3fe608060405234801561000f575f5ffd5b5060043610610111575f3560e01c806375794a3c1161009e578063b88d4fde1161006e578063b88d4fde14610229578063c87b56dd1461023c578063e985e9c51461024f578063eacabe1414610262578063f2fde38b14610275575f5ffd5b806375794a3c146101f45780638da5cb5b146101fd57806395d89b411461020e578063a22cb46514610216575f5ffd5b806323b872dd116100e457806323b872dd1461019257806342842e0e146101a55780636352211e146101b857806370a08231146101cb578063715018a6146101ec575f5ffd5b806301ffc9a71461011557806306fdde031461013d578063081812fc14610152578063095ea7b31461017d575b5f5ffd5b610128610123366004610f03565b610288565b60405190151581526020015b60405180910390f35b6101456102b2565b6040516101349190610f4c565b610165610160366004610f5e565b610341565b6040516001600160a01b039091168152602001610134565b61019061018b366004610f90565b610368565b005b6101906101a0366004610fb8565b610377565b6101906101b3366004610fb8565b610405565b6101656101c6366004610f5e565b610424565b6101de6101d9366004610ff2565b61042e565b604051908152602001610134565b610190610473565b6101de60085481565b6007546001600160a01b0316610165565b610145610486565b61019061022436600461100b565b610495565b6101906102373660046110cf565b6104a0565b61014561024a366004610f5e565b6104b8565b61012861025d366004611146565b610539565b610190610270366004611177565b610566565b610190610283366004610ff2565b61059e565b5f6001600160e01b03198216632483248360e11b14806102ac57506102ac826105db565b92915050565b60605f80546102c0906111d5565b80601f01602080910402602001604051908101604052809291908181526020018280546102ec906111d5565b80156103375780601f1061030e57610100808354040283529160200191610337565b820191905f5260205f20905b81548152906001019060200180831161031a57829003601f168201915b5050505050905090565b5f61034b8261062a565b505f828152600460205260409020546001600160a01b03166102ac565b610373828233610662565b5050565b6001600160a01b0382166103a557604051633250574960e11b81525f60048201526024015b60405180910390fd5b5f6103b183833361066f565b9050836001600160a01b0316816001600160a01b0316146103ff576040516364283d7b60e01b81526001600160a01b038086166004830152602482018490528216604482015260640161039c565b50505050565b61041f83838360405180602001604052805f8152506104a0565b505050565b5f6102ac8261062a565b5f6001600160a01b038216610458576040516322718ad960e21b81525f600482015260240161039c565b506001600160a01b03165f9081526003602052604090205490565b61047b610761565b6104845f61078e565b565b6060600180546102c0906111d5565b6103733383836107df565b6104ab848484610377565b6103ff33858585856108a6565b60606104c38261062a565b505f6104d960408051602081019091525f815290565b90505f6104e5846109ce565b905081515f036104f6579392505050565b805115610528578181604051602001610510929190611224565b60405160208183030381529060405292505050919050565b61053184610a6d565b949350505050565b6001600160a01b039182165f90815260056020908152604080832093909416825291909152205460ff1690565b61056e610761565b60085461057b8382610ade565b6105858183610af7565b60088054905f61059483611238565b9190505550505050565b6105a6610761565b6001600160a01b0381166105cf57604051631e4fbdf760e01b81525f600482015260240161039c565b6105d88161078e565b50565b5f6001600160e01b031982166380ac58cd60e01b148061060b57506001600160e01b03198216635b5e139f60e01b145b806102ac57506301ffc9a760e01b6001600160e01b03198316146102ac565b5f818152600260205260408120546001600160a01b0316806102ac57604051637e27328960e01b81526004810184905260240161039c565b61041f8383836001610b46565b5f828152600260205260408120546001600160a01b039081169083161561069b5761069b818486610c4a565b6001600160a01b038116156106d5576106b65f855f5f610b46565b6001600160a01b0381165f90815260036020526040902080545f190190555b6001600160a01b03851615610703576001600160a01b0385165f908152600360205260409020805460010190555b5f8481526002602052604080822080546001600160a01b0319166001600160a01b0389811691821790925591518793918516917fddf252ad1be2c89b69c2b068fc378daa952ba7f163c4a11628f55a4df523b3ef91a4949350505050565b6007546001600160a01b031633146104845760405163118cdaa760e01b815233600482015260240161039c565b600780546001600160a01b038381166001600160a01b0319831681179093556040519116919082907f8be0079c531659141344cd1fd0a4f28419497f9722a3daafe3b4186f6b6457e0905f90a35050565b6001600160a01b0383166108085760405163a9fbf51f60e01b81525f600482015260240161039c565b6001600160a01b03821661083a57604051630b61174360e31b81526001600160a01b038316600482015260240161039c565b6001600160a01b038381165f81815260056020908152604080832094871680845294825291829020805460ff191686151590811790915591519182527f17307eab39ab6107e8899845ad3d59bd9653f200f220920489ca2b5937696c31910160405180910390a3505050565b6001600160a01b0383163b156109c757604051630a85bd0160e11b81526001600160a01b0384169063150b7a02906108e890889088908790879060040161125c565b6020604051808303815f875af1925050508015610922575060408051601f3d908101601f1916820190925261091f91810190611298565b60015b610989573d80801561094f576040519150601f19603f3d011682016040523d82523d5f602084013e610954565b606091505b5080515f0361098157604051633250574960e11b81526001600160a01b038516600482015260240161039c565b805160208201fd5b6001600160e01b03198116630a85bd0160e11b146109c557604051633250574960e11b81526001600160a01b038516600482015260240161039c565b505b5050505050565b5f8181526006602052604090208054606091906109ea906111d5565b80601f0160208091040260200160405190810160405280929190818152602001828054610a16906111d5565b8015610a615780601f10610a3857610100808354040283529160200191610a61565b820191905f5260205f20905b815481529060010190602001808311610a4457829003601f168201915b50505050509050919050565b6060610a788261062a565b505f610a8e60408051602081019091525f815290565b90505f815111610aac5760405180602001604052805f815250610ad7565b80610ab684610cae565b604051602001610ac7929190611224565b6040516020818303038152906040525b9392505050565b610373828260405180602001604052805f815250610d3e565b5f828152600660205260409020610b0e82826112f7565b506040518281527ff8e1a15aba9398e019f0b49df1a4fde98ee17ae345cb5f6b5e2c27f5033e8ce79060200160405180910390a15050565b8080610b5a57506001600160a01b03821615155b15610c1b575f610b698461062a565b90506001600160a01b03831615801590610b955750826001600160a01b0316816001600160a01b031614155b8015610ba85750610ba68184610539565b155b15610bd15760405163a9fbf51f60e01b81526001600160a01b038416600482015260240161039c565b8115610c195783856001600160a01b0316826001600160a01b03167f8c5be1e5ebec7d5bd14f71427d1e84f3dd0314c0f7b2291e5b200ac8c7c3b92560405160405180910390a45b505b50505f90815260046020526040902080546001600160a01b0319166001600160a01b0392909216919091179055565b610c55838383610d55565b61041f576001600160a01b038316610c8357604051637e27328960e01b81526004810182905260240161039c565b60405163177e802f60e01b81526001600160a01b03831660048201526024810182905260440161039c565b60605f610cba83610db6565b60010190505f8167ffffffffffffffff811115610cd957610cd9611044565b6040519080825280601f01601f191660200182016040528015610d03576020820181803683370190505b5090508181016020015b5f19016f181899199a1a9b1b9c1cb0b131b232b360811b600a86061a8153600a8504945084610d0d57509392505050565b610d488383610e8d565b61041f335f8585856108a6565b5f6001600160a01b038316158015906105315750826001600160a01b0316846001600160a01b03161480610d8e5750610d8e8484610539565b806105315750505f908152600460205260409020546001600160a01b03908116911614919050565b5f8072184f03e93ff9f4daa797ed6e38ed64bf6a1f0160401b8310610df45772184f03e93ff9f4daa797ed6e38ed64bf6a1f0160401b830492506040015b6d04ee2d6d415b85acef81000000008310610e20576d04ee2d6d415b85acef8100000000830492506020015b662386f26fc100008310610e3e57662386f26fc10000830492506010015b6305f5e1008310610e56576305f5e100830492506008015b6127108310610e6a57612710830492506004015b60648310610e7c576064830492506002015b600a83106102ac5760010192915050565b6001600160a01b038216610eb657604051633250574960e11b81525f600482015260240161039c565b5f610ec283835f61066f565b90506001600160a01b0381161561041f576040516339e3563760e11b81525f600482015260240161039c565b6001600160e01b0319811681146105d8575f5ffd5b5f60208284031215610f13575f5ffd5b8135610ad781610eee565b5f81518084528060208401602086015e5f602082860101526020601f19601f83011685010191505092915050565b602081525f610ad76020830184610f1e565b5f60208284031215610f6e575f5ffd5b5035919050565b80356001600160a01b0381168114610f8b575f5ffd5b919050565b5f5f60408385031215610fa1575f5ffd5b610faa83610f75565b946020939093013593505050565b5f5f5f60608486031215610fca575f5ffd5b610fd384610f75565b9250610fe160208501610f75565b929592945050506040919091013590565b5f60208284031215611002575f5ffd5b610ad782610f75565b5f5f6040838503121561101c575f5ffd5b61102583610f75565b915060208301358015158114611039575f5ffd5b809150509250929050565b634e487b7160e01b5f52604160045260245ffd5b5f5f67ffffffffffffffff84111561107257611072611044565b50604051601f19601f85018116603f0116810181811067ffffffffffffffff821117156110a1576110a1611044565b6040528381529050808284018510156110b8575f5ffd5b838360208301375f60208583010152509392505050565b5f5f5f5f608085870312156110e2575f5ffd5b6110eb85610f75565b93506110f960208601610f75565b925060408501359150606085013567ffffffffffffffff81111561111b575f5ffd5b8501601f8101871361112b575f5ffd5b61113a87823560208401611058565b91505092959194509250565b5f5f60408385031215611157575f5ffd5b61116083610f75565b915061116e60208401610f75565b90509250929050565b5f5f60408385031215611188575f5ffd5b61119183610f75565b9150602083013567ffffffffffffffff8111156111ac575f5ffd5b8301601f810185136111bc575f5ffd5b6111cb85823560208401611058565b9150509250929050565b600181811c908216806111e957607f821691505b60208210810361120757634e487b7160e01b5f52602260045260245ffd5b50919050565b5f81518060208401855e5f93019283525090919050565b5f610531611232838661120d565b8461120d565b5f6001820161125557634e487b7160e01b5f52601160045260245ffd5b5060010190565b6001600160a01b03858116825284166020820152604081018390526080606082018190525f9061128e90830184610f1e565b9695505050505050565b5f602082840312156112a8575f5ffd5b8151610ad781610eee565b601f82111561041f57805f5260205f20601f840160051c810160208510156112d85750805b601f840160051c820191505b818110156109c7575f81556001016112e4565b815167ffffffffffffffff81111561131157611311611044565b6113258161131f84546111d5565b846112b3565b6020601f821160018114611357575f83156113405750848201515b5f19600385901b1c1916600184901b1784556109c7565b5f84815260208120601f198516915b828110156113865787850151825560209485019460019092019101611366565b50848210156113a357868401515f19600387901b60f8161c191681555b50505050600190811b0190555056fea26469706673582212209a7aa1512a471e965b191dc63e9f822507f76e94a248b31ce8996de11445aea564736f6c634300081c0033",
  "linkReferences": {},
  "deployedLinkReferences": {},
  "immutableReferences": {},
  "inputSourceName": "project/contracts/SleepyCatCoinNFT.sol",
  "buildInfoId": "solc-0_8_28-f7b8e3a498108b2fcf9f1acbf7595bf9440d5a25"
}