{
  "_format": "hh3-artifact-1",
  "contractName": "SleepyCatVault",
  "sourceName": "contracts/SleepyCatVault.sol",
  "abi": [
    {
      "inputs": [
        {
          "internalType": "address",
          "name": "_asset",
          "type": "address"
        },
        {
          "internalType": "address",
          "name": "_nft",
          "type": "address"
        }
      ],
      "stateMutability": "nonpayable",
      "type": "constructor"
    },
    {
      "inputs": [],
      "name": "WITHDRAWAL_FEE_BPS",
      "outputs": [
        {
          "internalType": "uint256",
          "name": "",
          "type": "uint256"
        }
      ],
      "stateMutability": "view",
      "type": "function"
    },
    {
      "inputs": [],
      "name": "admin",
      "outputs": [
        {
          "internalType": "address",
          "name": "",
          "type": "address"
        }
      ],
      "stateMutability": "view",
      "type": "function"
    },
    {
      "inputs": [],
      "name": "asset",
      "outputs": [
        {
          "internalType": "contract SleepyCatCoin",
          "name": "",
          "type": "address"
        }
      ],
      "stateMutability": "view",
      "type": "function"
    },
    {
      "inputs": [
        {
          "internalType": "uint256",
          "name": "_amount",
          "type": "uint256"
        }
      ],
      "name": "deposit",
      "outputs": [],
      "stateMutability": "nonpayable",
      "type": "function"
    },
    {
      "inputs": [],
      "name": "governanceNFT",
      "outputs": [
        {
          "internalType": "contract SleepyCatCoinNFT",
          "name": "",
          "type": "address"
        }
      ],
      "stateMutability": "view",
      "type": "function"
    },
    {
      "inputs": [
        {
          "internalType": "address",
          "name": "",
          "type": "address"
        }
      ],
      "name": "hasMembership",
      "outputs": [
        {
          "internalType": "bool",
          "name": "",
          "type": "bool"
        }
      ],
      "stateMutability": "view",
      "type": "function"
    },
    {
      "inputs": [
        {
          "internalType": "address",
          "name": "",
          "type": "address"
        }
      ],
      "name": "sharesOf",
      "outputs": [
        {
          "internalType": "uint256",
          "name": "",
          "type": "uint256"
        }
      ],
      "stateMutability": "view",
      "type": "function"
    },
    {
      "inputs": [],
      "name": "totalShares",
      "outputs": [
        {
          "internalType": "uint256",
          "name": "",
          "type": "uint256"
        }
      ],
      "stateMutability": "view",
      "type": "function"
    },
    {
      "inputs": [
        {
          "internalType": "uint256",
          "name": "_shares",
          "type": "uint256"
        }
      ],
      "name": "withdraw",
      "outputs": [],
      "stateMutability": "nonpayable",
      "type": "function"
    }
  ],
  "bytecode": "0x60c060405234801561000f575f5ffd5b506040516108d73803806108d783398101604081905261002e91610071565b6001600160a01b039182166080521660a0525f80546001600160a01b031916331790556100a2565b80516001600160a01b038116811461006c575f5ffd5b919050565b5f5f60408385031215610082575f5ffd5b61008b83610056565b915061009960208401610056565b90509250929050565b60805160a0516107eb6100ec5f395f8181610112015261060d01525f818160ae0152818161021901528181610363015281816103ec0152818161048c015261053901526107eb5ff3fe608060405234801561000f575f5ffd5b5060043610610090575f3560e01c8063928e98ae11610063578063928e98ae1461010d578063a88db6ad14610134578063b6b55f2514610166578063f5eb42dc14610179578063f851a44014610198575f5ffd5b80632e1a7d4d1461009457806338d52e0f146100a95780633a4ae669146100ed5780633a98ef3914610104575b5f5ffd5b6100a76100a23660046106c5565b6101aa565b005b6100d07f000000000000000000000000000000000000000000000000000000000000000081565b6040516001600160a01b0390911681526020015b60405180910390f35b6100f66101f481565b6040519081526020016100e4565b6100f660015481565b6100d07f000000000000000000000000000000000000000000000000000000000000000081565b6101566101423660046106dc565b60036020525f908152604090205460ff1681565b60405190151581526020016100e4565b6100a76101743660046106c5565b610466565b6100f66101873660046106dc565b60026020525f908152604090205481565b5f546100d0906001600160a01b031681565b335f908152600260205260409020548111156102025760405162461bcd60e51b8152602060048201526013602482015272496e73756666696369656e742073686172657360681b604482015260640160405180910390fd5b6040516370a0823160e01b81523060048201525f907f00000000000000000000000000000000000000000000000000000000000000006001600160a01b0316906370a0823190602401602060405180830381865afa158015610266573d5f5f3e3d5ffd5b505050506040513d601f19601f8201168201806040525081019061028a9190610709565b90505f600154828461029c9190610734565b6102a69190610751565b90505f6127106102b86101f484610734565b6102c29190610751565b90505f6102cf8284610770565b335f908152600260205260408120805492935087929091906102f2908490610770565b925050819055508460015f82825461030a9190610770565b9091555050335f90815260026020526040812054900361033b57335f908152600360205260409020805460ff191690555b5f5460405163a9059cbb60e01b81526001600160a01b039182166004820152602481018490527f00000000000000000000000000000000000000000000000000000000000000009091169063a9059cbb906044016020604051808303815f875af11580156103ab573d5f5f3e3d5ffd5b505050506040513d601f19601f820116820180604052508101906103cf9190610783565b5060405163a9059cbb60e01b8152336004820152602481018290527f00000000000000000000000000000000000000000000000000000000000000006001600160a01b03169063a9059cbb906044016020604051808303815f875af115801561043a573d5f5f3e3d5ffd5b505050506040513d601f19601f8201168201806040525081019061045e9190610783565b505050505050565b5f6001545f03610477575080610517565b6040516370a0823160e01b81523060048201527f00000000000000000000000000000000000000000000000000000000000000006001600160a01b0316906370a0823190602401602060405180830381865afa1580156104d9573d5f5f3e3d5ffd5b505050506040513d601f19601f820116820180604052508101906104fd9190610709565b60015461050a9084610734565b6105149190610751565b90505b6040516323b872dd60e01b8152336004820152306024820152604481018390527f00000000000000000000000000000000000000000000000000000000000000006001600160a01b0316906323b872dd906064016020604051808303815f875af1158015610587573d5f5f3e3d5ffd5b505050506040513d601f19601f820116820180604052508101906105ab9190610783565b50335f9081526003602052604090205460ff166106865760408051633ab2af8560e21b81523360048201526024810191909152601860448201527f697066733a2f2f796f75722d6d657461646174612d636964000000000000000060648201527f00000000000000000000000000000000000000000000000000000000000000006001600160a01b03169063eacabe14906084015f604051808303815f87803b158015610656575f5ffd5b505af1158015610668573d5f5f3e3d5ffd5b5050335f908152600360205260409020805460ff1916600117905550505b335f90815260026020526040812080548392906106a49084906107a2565b925050819055508060015f8282546106bc91906107a2565b90915550505050565b5f602082840312156106d5575f5ffd5b5035919050565b5f602082840312156106ec575f5ffd5b81356001600160a01b0381168114610702575f5ffd5b9392505050565b5f60208284031215610719575f5ffd5b5051919050565b634e487b7160e01b5f52601160045260245ffd5b808202811582820484141761074b5761074b610720565b92915050565b5f8261076b57634e487b7160e01b5f52601260045260245ffd5b500490565b8181038181111561074b5761074b610720565b5f60208284031215610793575f5ffd5b81518015158114610702575f5ffd5b8082018082111561074b5761074b61072056fea2646970667358221220e12e76f042ba82a8db30d1b9050858645cb0ac231f92188933ac6151935d90ac64736f6c634300081c0033",
  "linkReferences": {},
  "deployedLinkReferences": {},
  "immutableReferences": {
    "8073": [
      {
        "length": 32,
        "start": 174
      },
      {
        "length": 32,
        "start": 537
      },
      {
        "length": 32,
        "start": 867
      },
      {
        "length": 32,
        "start": 1004
      },
      {
        "length": 32,
        "start": 1164
      },
      {
        "length": 32,
        "start": 1337
      }
    ],
    "8076": [
      {
        "length": 32,
        "start": 274
      },
      {
        "length": 32,
        "start": 1549
      }
    ]
  },
  "inputSourceName": "project/contracts/SleepyCatVault.sol",
  "buildInfoId": "solc-0_8_28-9b326f1aad761236c2c07444c6f67e58c13d7423"
}